S01400005045465F5445535476335F342E737265635A
S11300000C9479010C949A010C949A010C949A0121
S11300100C949A010C949A010C949A010C949A01F0
S11300200C949A010C949A010C949A010C949A01E0
S11300300C949A010C949A010C949F010C949A01CB
S11300400C949A010C949A010C949A010C949A01C0
S11300500C94B3010C949A010C949A010C949A0197
S11300600C949A010C949A010C949A010C949A01A0
S11300700C949A010C949A010C949A010C949A0190
S11300800C949A010C949A010C949A010C949A0180
S11300900C949A010C949A010C949A010C94B8084B
S11300A00C949A010C949A010C949A010C949A0160
S11300B00C949A010C949A010C949A010C949A0150
S11300C00C949A010C949A010C949A010C949A0140
S11300D00C949A010C949A010C949A010C949A0130
S11300E00C949A010C949A010C949A010C949A0120
S11300F00C949A010C949A010C949A010C949A0110
S11301000C949A010C949A010C949A010C949A01FF
S11301100C949A010C949A010C949A010C94620820
S11301200C949A010C949A010C949A010C949A01DF
S11301300C949A010C94A9010C949A010C949A01C0
S11301400C949A010C949A010C949A010C949A01BF
S11301500C949A010C949A010C949A010C949A01AF
S11301600C949A010C949A010C949A010C949A019F
S11301700C949A010C949A010C949A010C949A018F
S11301800C949A010C949A010C949A010C949A017F
S11301900C949A010C949A010C949A010C949A016F
S11301A00C949A010C949A010C949A010C949A015F
S11301B00C949A010C949A010C949A010C949A014F
S11301C00C949A010C949A010C949A010C949A013F
S11301D00C949A010C949A010C949A010C949A012F
S11301E00C949A010C949A010C941E0B0C946F0AB3
S11301F06E616E00696E660000407A10F35A00A0CA
S1130200724E18090010A5D4E80000E876481700DB
S113021000E40B54020000CA9A3B000000E1F5051B
S1130220000080969800000040420F000000A08665
S113023001000000102700000000E8030000000097
S11302406400000000000A0000000000010000003B
S113025000002C76D888DC674F0823DFC1DFAE5955
S1130260E1B1B796E5E3E453C63AE651997696E8E8
S1130270E6C28426EB898C9B62ED407C6FFCEFBC6C
S11302809C9F40F2BAA56FA5F490055A2AF75C9397
S11302906B6CF9676DC11BFCE0E40D47FEF520E6CD
S11302A0B500D0ED902E0300943577050080841EB0
S11302B0080000204E0A000000C80C333333330F0B
S11302C0986E12831141EF8D2114893BE65516CFA8
S11302D0FEE6DB18D1844B381BF77C1D901DA4BBB4
S11302E0E424203284725E228100C9F124ECA1E569
S11302F03D2711241FBECFEFCDBFDFE5DEBF00E0F9
S11303000CBF18E2A0E0B0E2EAE7F1E200E00BBFC4
S113031002C007900D92A638B107D9F728E2A6E8E3
S1130320B8E201C01D92A23AB207E1F70E940308A5
S11303300C94BB100C9400000E94BA0908951F92FB
S11303400F920FB60F9211240F900FBE0F901F90B3
S113035018951F920F920FB60F9211240F900FBE93
S11303600F901F9018951F920F920FB60F921124A1
S11303700F900FBE0F901F90189580FF04C021E0CE
S11303802093650603C021E0209366069595879522
S113039080FF04C022E02093650603C022E020937E
S11303A066069595879580FF04C024E02093650632
S11303B003C024E0209366069595879580FF04C0CA
S11303C028E02093650603C028E0209366069595EF
S11303D0879580FF04C020E12093650603C020E1D7
S11303E0209366069595879580FF04C020E22093AC
S11303F0650603C020E2209366069595879580FFE5
S113040004C020E42093650603C020E4209366061C
S113041081FF04C080E880936506089580E8809396
S1130420660608951F93CF93DF93C0EAD6E094E065
S11304309E8398E09E8395ED9A95F1F7000012E073
S11304401D8390E00E94BD018FE891E00197F1F7D0
S113045000C000001E83DF91CF911F910895E0EA50
S1130460F6E088E0868384E086838FE79CE001974A
S1130470F1F700C0000081E085839FEF29EF80E061
S1130480915020408040E1F700C0000080E30E94CA
S113049012028FE193E00197F1F700C0000080E3BE
S11304A00E9412028FE693E00197F1F700C000006A
S11304B08CE00E9412028FE193E00197F1F700C0F3
S11304C0000081E00E9412028FE79EE30197F1F79A
S11304D000C0000086E00E9412028FE792E00197BC
S11304E0F1F700C0000082E00E9412020895CF9349
S11304F0DF93C0EAD6E098E09D83EFE3F1E0319723
S1130500F1F700C0000090E00E94BD018FEE90E082
S11305100197F1F700C0000082E08D8395ED9A9574
S1130520F1F700008E83E5EDEA95F1F70000DF9125
S1130530CF91089584E30E9412028FE193E0019722
S1130540F1F700C0000086E30E9412028FE193E0FD
S11305500197F1F700C000000895CF93DF93D0E036
S1130560D03240F48D2F80680E94120280E80E94ED
S1130570120212C080EE8D0F80680E94120288E879
S11305800E94120209C080E00E947702C150D9F78C
S1130590DF5FD03429F702C0C0E1F5CFDF91CF91FE
S11305A00895CF92DF92FF920F931F93CF93DF931F
S11305B06C01F12C8FE18F1540F08F2D80680E9423
S11305C0120280E80E94120214C080EE8F0D80682F
S11305D00E94120288E80E9412020BC089910E94B4
S11305E07702C017D107D1F7F39480E4F812E2CF71
S11305F006C0E60180E1C80ED11C8601EFCFDF9171
S1130600CF911F910F91FF90DF90CF900895CF93DA
S1130610DF93EB010E9412028881882331F0219636
S11306200E94770289918111FBCFDF91CF910895C8
S1130630CF93DF93CDB7DEB72E97CDBFDEBF8EE06D
S1130640ECE1F4E2DE01119601900D928A95E1F756
S11306500E942F0269E375E280E890E00E9407039C
S11306606AE475E280E990E00E9407036BE575E2B5
S113067088E890E00E94070388E695E20E94830AD6
S113068004C0CE0101960E94550A6FE675E2CE01C0
S113069001960E94DE0F892BA1F36BE675E289E9CE
S11306A090E00E9407032E96CDBFDEBFDF91CF916D
S11306B00895AF92BF92CF92DF92EF92FF920F9381
S11306C01F93CF93DF93CDB7DEB7A497CDBFDEBF23
S11306D019821A82FE01339682E1DF011D928A9506
S11306E0E9F70E942F0262E775E280E890E00E9439
S11306F007036DE775E280E990E00E9407038BE849
S113070095E20E94830A1D8A1E8AFE0177968EE076
S1130710DF011D928A95E9F701E010E00F2EFAEB54
S1130720CF2EF5E2DF2EF02D7E01B5E1EB0EF11CAC
S1130730CE0101960E94550A6FE675E2CE0101963C
S11307400E94DE0F892B29F565EB75E2CE01019637
S11307500E94DE0F892B61F358018FEFA81AB80AA3
S11307601F930F93DF92CF92FF92EF920E94341067
S1130770B70188E890E00E9407038BE895E20E94A5
S1130780830A0F900F900F900F900F900F90850198
S1130790CFCF6AEC75E288E990E00E940703A49643
S11307A0CDBFDEBFDF91CF911F910F91FF90EF90EE
S11307B0DF90CF90BF90AF900895AF92BF92CF9249
S11307C0DF92EF92FF920F931F93CF93DF93CDB7F6
S11307D0DEB7E297CDBFDEBF19821A82FE013396DF
S11307E08CE1DF011D928A95E9F70E942F0268EDE2
S11307F075E280E890E00E9407036DE775E280E906
S113080090E00E94070384EE95E20E94830A1F8E03
S113081018A2FE01B19682E1DF011D928A95E9F7E3
S113082001E010E00F2EFAEBCF2EF5E2DF2EF02DD3
S11308307E01BFE1EB0EF11CCE0101960E94550A28
S11308406FE675E2CE0101960E94DE0F892B29F531
S113085065EB75E2CE0101960E94DE0F892B61F3F0
S113086058018FEFA81AB80A1F930F93DF92CF9203
S1130870FF92EF920E943410B70188E890E00E9442
S1130880070384EE95E20E94830A0F900F900F9065
S11308900F900F900F908501CFCF64E176E288E945
S11308A090E00E940703E296CDBFDEBFDF91CF91B7
S11308B01F910F91FF90EF90DF90CF90BF90AF907A
S11308C00895AF92BF92CF92DF92EF92FF920F936F
S11308D01F93CF93DF93CDB7DEB7A497CDBFDEBF11
S11308E08FE0ECE1F4E2DE01119601900D928A951D
S11308F0E1F7FE01709685E0DF011D928A95E9F724
S11309000E942F026FE176E280E890E00E940703E4
S11309106DE775E280E990E00E9407038DE296E2BC
S11309200E94830A1D8A1E8AFE0177968EE0DF01EB
S11309301D928A95E9F701E010E00F2EFAEBCF2E15
S1130940F5E2DF2EF02D7E01B5E1EB0EF11CCE01B8
S113095001960E94550A6FE675E2CE0101960E9447
S1130960DE0F892B09F066C061E576E2CE010196BF
S11309700E94DE0F892B19F168E576E280E990E0A8
S11309800E94070358018FEFA81AB80A1F930F9308
S1130990DF92CF92FF92EF920E943410B70188E861
S11309A090E00E9407038DE296E20E94830A0F9072
S11309B00F900F900F900F900F908501C8CF64E6B1
S11309C076E2CE0101960E94DE0F892B39F06CE6A7
S11309D076E280E990E00E9407032CC065EB75E2A3
S11309E0CE0101960E94DE0F892B09F4B0CF69E78E
S11309F076E280E990E00E9407035801AFEFAA1A5B
S1130A00BA0A1F930F93DF92CF92FF92EF920E9444
S1130A103410B70188E890E00E9407038DE296E263
S1130A200E94830A0F900F900F900F900F900F90D9
S1130A3085018DCF67E876E288E990E00E9407039C
S1130A4080E090E0A496CDBFDEBFDF91CF911F91EF
S1130A500F91FF90EF90DF90CF90BF90AF900895EB
S1130A60CF92DF92EF92FF920F931F93CF93DF9376
S1130A70CDB7DEB7C354D340CDBFDEBF0E942F0233
S1130A8068E976E280E890E00E9407037E012BE0AB
S1130A90E21A2EEFF20A00E010E0083011053CF4EF
S1130AA0802F0E945508D7018D939C9307C0802FF7
S1130AB087700E94AB08F701808391830F5F1F4FFB
S1130AC0F2E0EF0EF11C0031110539F76DE775E224
S1130AD080E990E00E9407038E010B5E1D4FF80130
S1130AE0119211928CE0DF011D928A95E9F7FE01C3
S1130AF0ED5DFD4F119211928DE091E0DF019C01BB
S1130B001D9221503040E1F7FE01EE5CFC4F119242
S1130B10119280E1DF011D928A95E9F781E08F93BC
S1130B208AEC8F9383E494E29F938F931F930F93A4
S1130B300E943410C8010E94830A0F900F900F90F6
S1130B400F900F900F90CE0101960E94550A6FE608
S1130B5075E2CE0101960E94DE0F892BA1F3EFE32B
S1130B60FFE13197F1F700C0000067EA76E288E818
S1130B7090E00E94070385EB96E20E94830A81E0DD
S1130B8095E20E94830A8AE195E20E94830A81E049
S1130B908F938FE08F938BE794E29F938F9386E8F4
S1130BA098E29F938F930E94341086E898E20E9403
S1130BB0830A89E097E20E94830A83E696E20E9410
S1130BC0830A7E01FDEDEF1AFDEFFF0AF7010190A4
S1130BD00020E9F731978BE790E080839183C85038
S1130BE0DE4F8881C85FD1408F93C950DE4F888122
S1130BF0C75FD1408F938BE197E29F938F938E01D0
S1130C000E5C1C4F1F930F930E943410B801C70150
S1130C100E94C80FF70101900020E9F731970F2EC9
S1130C20FCE2CF2EF0E2DF2EF02DC082D1821282C0
S1130C30C650DE4F8881CA5FD1408F93C750DE4FC4
S1130C408881C95FD1408F938DE297E29F938F9300
S1130C501F930F930E943410B801C7010E94C80F5C
S1130C60F70101900020E9F73197C082D182128206
S1130C70C450DE4F8881CC5FD1408F93C550DE4F86
S1130C808881CB5FD1408F938FE397E29F938F93BB
S1130C901F930F930E943410B801C7010E94C80F1C
S1130CA0F70101900020E9F73197C082D1821282C6
S1130CB0C250DE4F8881CE5FD1408F93C350DE4F48
S1130CC08881CD5FD1408F9381E597E29F938F9385
S1130CD01F930F930E943410B801C7010E94C80FDC
S1130CE0F70101900020E9F73197C082D182128286
S1130CF0C050DE4F8881C050D2408F93C150DE4F28
S1130D008881CF5FD1408F9383E697E29F938F933F
S1130D101F930F930E943410CDBFDEBFB801C701EB
S1130D200E94C80FF70101900020E9F73197C082B3
S1130D30D1821282CE5FDD4F8881C250D2408F9320
S1130D40CF5FDD4F8881C150D2408F9385E797E212
S1130D509F938F931F930F930E943410B801C70180
S1130D600E94C80FF70101900020E9F73197C08273
S1130D70D1821282CC5FDD4F8881C450D2408F93E0
S1130D80CD5FDD4F8881C350D2408F9386E897E2D0
S1130D909F938F931F930F930E943410B801C70140
S1130DA00E94C80FF70101900020E9F73197C08233
S1130DB0D1821282C85FDD4F8881C850D2408F93A0
S1130DC0C95FDD4F8881C750D2408F9387E997E28E
S1130DD09F938F931F930F930E943410B801C70100
S1130DE00E94C80FF70101900020E9F73197C082F3
S1130DF0D1821282C65FDD4F8881CA50D2408F9360
S1130E00C75FDD4F8881C950D2408F9388EA97E24B
S1130E109F938F931F930F930E943410B801C701BF
S1130E200E94C80FF70101900020E9F73197C082B2
S1130E30D1821282C45FDD4F8881CC50D2408F931F
S1130E40C55FDD4F8881CB50D2408F9389EB97E209
S1130E509F938F931F930F930E943410B801C7017F
S1130E600E94C80FF70101900020E9F73197C08272
S1130E70D1821282C25FDD4F8881CE50D2408F93DF
S1130E80C35FDD4F8881CD50D2408F938AEC97E2C7
S1130E909F938F931F930F930E943410CDBFDEBF97
S1130EA0B801C7010E94C80FF70101900020E9F7BB
S1130EB03197C082D1821282C05FDD4F8881C051D8
S1130EC0D2408F93C15FDD4F8881CF50D2408F9342
S1130ED08BED97E29F938F931F930F930E9434108F
S1130EE0B801C7010E94C80FF70101900020E9F77B
S1130EF03197C082D1821282CE5EDD4F8881C25189
S1130F00D2408F93CF5EDD4F8881C151D2408F9301
S1130F108CEE97E29F938F931F930F930E9434104C
S1130F20B801C7010E94C80FF70101900020E9F73A
S1130F303197C082D1821282CC5EDD4F8881C45148
S1130F40D2408F93CD5EDD4F8881C351D2408F93C1
S1130F508DEF97E29F938F931F930F930E9434100A
S1130F60B801C7010E94C80FF70101900020E9F7FA
S1130F7031978DE790E080839183C7010E94830AB3
S1130F8083E696E20E94830ACDBFDEBFCE010196BE
S1130F900E94550A61E576E2CE0101960E94DE0FB9
S1130FA0892BF1F465EB75E2CE0101960E94DE0F08
S1130FB0892B39F06EE078E288E890E00E9407031C
S1130FC0E5CF6BE178E2CE0101960E94DE0F892B1A
S1130FD0E9F261E278E288E890E00E940703D6CF64
S1130FE06CE278E288E990E00E940703CD5BDC4F75
S1130FF0CDBFDEBFDF91CF911F910F91FF90EF9096
S1131000DF90CF9008950E949C010E942F020E94BD
S11310109A020E94AD0280E090E20E94D1022FEF7A
S11310203FE483EC215030408040E1F700C00000F1
S11310300E942F020E9418030E9459030E94DD039C
S11310406AE378E288E990E00E9407039AEAE6EE10
S1131050F6E921E09150E040F0402040D9F700004B
S113106000E816E0C1E00E9461040E943005F80126
S1131070C783F9CFE0E0F2E083E082A398E09183B4
S1131080848381E0808380E00895880F880F880F2F
S1131090E0E0F2E081A381E080A380A1806880A3E6
S11310A0089580910602817008950E9445080E9467
S11310B051088823E1F3E0E0F2E08089918921E09E
S11310C0268308951F920F920FB60F9211240BB628
S11310D00F922F933F934F935F936F937F938F93CD
S11310E09F93AF93BF93EF93FF9381E080930602A6
S11310F0E0919A28F0919B28309709F01995FF9177
S1131100EF91BF91AF919F918F917F916F915F917B
S11311104F913F912F910F900BBE0F900FBE0F90E8
S11311201F901895E0E4F2E083E082A3848381E0D9
S1131130808380E00895880F880F880FE0E4F2E050
S113114081A381E080A380A1806880A30895809119
S11311504602817008950E949B080E94A708882374
S1131160E1F3E0E4F2E08089918921E026830895A7
S11311701F920F920FB60F9211240BB60F922F935A
S11311803F934F935F936F937F938F939F93AF930B
S1131190BF93EF93FF9381E080934602E0919828F8
S11311A0F0919928309709F01995FF91EF91BF912B
S11311B0AF919F918F917F916F915F914F913F91EB
S11311C02F910F900BBE0F900FBE0F901F9018958C
S11311D041E068ED80E490E00E941A0A80E00895FE
S11311E0E0E1F6E0808188618193E83186E0F807E8
S11311F0C9F7E0E3F6E0808188618193E83386E013
S1131200F807C9F7E0E5F6E0808188618193E83565
S113121086E0F807C9F7E0E7F6E08081886181930A
S1131220E83786E0F807C9F7E0E9F6E080818861ED
S11312308193E83986E0F807C9F7E0EBF6E08081AE
S113124088618193E83B86E0F807C9F7E0EFF7E0AF
S1131250808188618193E83F87E0F807C9F70895A2
S1131260E0E1F6E080811082808187608083E1E1A3
S1131270F6E080811082808187608083E2E1F6E07D
S113128080811082808187608083E3E1F6E0808141
S11312901082808187608083E4E1F6E0808110829F
S11312A0808187608083E5E1F6E08081108280811F
S11312B087608083E6E1F6E0808110828081876028
S11312C08083E7E1F6E080811082808187608083FB
S11312D00E943A080895E0E3F6E08081108280815C
S11312E087608083E1E3F6E08081108280818760FB
S11312F08083E2E3F6E080811082808187608083CE
S1131300E3E3F6E080811082808187608083E4E3F8
S1131310F6E080811082808187608083E5E3F6E0D7
S113132080811082808187608083E6E3F6E080819B
S11313301082808187608083E7E3F6E080811082F9
S11313408081876080830E9492080895E0E4F6E03B
S113135084E0828388E0818386830E943D0A089525
S1131360E0E8F6E084E0828388E0818386830E945B
S11313708C0A08950E94F008E0E4F6E021E022835C
S113138092E0928380E1828330E23283E0E6F6E009
S1131390218326839183968354E05183568348E0C6
S11313A041834683818386833183368360E461830A
S11313B0668330E831833683E0EAF6E021832683CE
S11313C091839683518356834183468381838683A5
S11313D06283318336830E94210A0E942B0A0E9471
S11313E0330A0E94020A0E94E8080E9430090E94FF
S11313F06B090E94110A0E941F0A0E94A6090E94FA
S1131400B009089586E080935000E0E5F0E0818122
S113141081FFFDCFE0E5F0E0818182FFFDCF80E038
S11314200895789447EC68ED82EA90E00E941A0AE5
S113143080E008951BBEFC0164BF4083089580E0F2
S11314400895E0E0F8E080E1818381E0868386E02E
S1131450808380E00895E0E0F9E081E0868385E020
S1131460808380E00895E0E4F8E080E1818381E016
S1131470868387E0808380E00895E0EAF8E088E9E5
S113148087838EE2868388E184838EE094E280936E
S11314909E2890939F2880E00895E0EAF8E08181F7
S11314A08823ECF78091A00808950F931F93CF939E
S11314B0DF93EC018E010E944D0A89938D30D1F7A0
S11314C0F8011082DF91CF911F910F910895E0EA06
S11314D0F8E0918195FFFDCF8093A00808950E94C4
S11314E0670A80E090E00895CF93DF93EC01888150
S11314F0882331F021960E94670A89918111FBCFDC
S1131500DF91CF9108950E94740A8DE00E94670ACA
S11315108AE00E94670A0895CF934FEF50E060E09D
S113152070E089EF06C0433896E0590761057105FC
S113153060F4440F551F661F771F8D3F0CF4416004
S11315408F5FC82F873079F73EC08823E4F58E3F3C
S1131550F4F42DEF3FEF281B310987FD339580E02C
S113156090EFA5EEB1E004C0880F991FAA1FBB1F1E
S11315702A95D2F7BC01CD0160587A4D8F4F9F4F09
S113158020E03BE440E050E00E94C30E3BC08D5F8E
S113159040E05BE460E070E09A01AB0104C0220F1C
S11315A0331F441F551F8A95D2F7DA01C901B69536
S11315B0A79597958795BC01CD0170518A419E4F9F
S11315C00E94C30E1FC08D5F40E05BE460E070E0EA
S11315D09A01AB0104C0220F331F441F551F8A9583
S11315E0D2F7DA01C901B695A79597958795BC01FD
S11315F0CD01785B87419E4F0E94C30E2150310973
S113160041095109832F8F70C295C07FC82BE0EA2E
S1131610FAE0C783268388E1848380E094E28093A0
S11316209E2890939F2880E0CF910895E0EAFAE005
S1131630918195FFFDCF8093A00A08950E94160B17
S113164080E090E008952F923F924F925F926F92C4
S11316507F928F929F92AF92BF92CF92DF92EF923E
S1131660FF920F931F93CF93DF93CDB7DEB76097AD
S1131670CDBFDEBF7C011B016A01FC01168217820B
S1131680838181FF44C39E012F5F3F4F3901F701DE
S11316909381F10193FD859193FF81911F0188232B
S11316A009F431C3853239F493FD859193FF819117
S11316B01F01853239F4B70190E00E94F80F5601FA
S11316C06501E5CF10E0512C912CFFE1F915D8F01C
S11316D08B3279F038F4803279F08332A1F4F92D29
S11316E0F0612EC08D3261F0803369F4292D2160C0
S11316F02DC0392D3260932E892D8460982E2AC0F6
S1131700E92DE86015C097FC2DC020ED280F2A3084
S113171088F496FE06C03AE0139F200D1124122F80
S113172019C08AE0589E200D1124522EE92DE06242
S11317309E2E10C08E3231F496FCE5C2F92DF06471
S11317409F2E08C08C3621F4292D2068922E02C0C9
S1131750883641F4F10193FD859193FF81911F0136
S11317608111B3CF9BEB980F933020F4992D9061A6
S1131770805E07C09BE9980F933008F066C1992DED
S11317809F7E96FF16E09F73992E853619F4906418
S1131790992E08C0863621F4392F3068932E02C062
S11317A01111115097FE07C01C3350F44424439484
S11317B0410E27E00BC0183038F027E017E005C0D1
S11317C027E09CE3492E02C0212F412C560184E0DE
S11317D0A80EB11CF6016081718182819381042D70
S11317E0A3010E94E50E6C01F981FC87F0FF02C0A1
S11317F0F3FF06C091FC06C092FE06C000E205C0DD
S11318000DE203C00BE201C000E08C858C7019F07E
S113181001115AC29BC297FE10C04C0CFC85F4FF08
S113182004C08A81813309F44A94141474F528E0BD
S1131830241578F588E0482E2CC096FC2AC0812F08
S113184090E08C159D059CF03CEFC3163FEFD3064A
S113185074F0892D8068982E0AC0E2E0F0E0EC0F65
S1131860FD1FE10FF11D8081803319F41150111116
S1131870F4CF97FE0EC044244394410E812F90E090
S1131880C816D9062CF41C1904C04424439401C07E
S113189010E097FE06C01C141D0434F4C601019622
S11318A005C085E090E002C081E090E0011101965E
S11318B0112331F0212F30E02F5F3F4F820F931F10
S11318C0252D30E08217930714F4581A01C0512CC7
S11318D0892D897049F4552039F0B70180E290E0F0
S11318E00E94F80F5A94F7CF002329F0B701802FF4
S11318F090E00E94F80F93FC09C0552039F0B7011D
S113190080E390E00E94F80F5A94F7CF97FE4CC002
S11319104601D7FE02C0812C912CC6018819990971
S1131920F301E80FF91FED87FE87960124193109A9
S11319302F87388B012F10E01195019511093FEF86
S11319408316930629F4B7018EE290E00E94F80F03
S1131950C814D9044CF08F8598898815990524F406
S1131960ED85FE85818101C080E3F1E08F1A910845
S11319702D853E852F5F3F4F2D873E87801691062C
S11319802CF0B70190E00E94F80FD9CFC814D90405
S113199041F49A81963320F4953319F43C8534FF4D
S11319A081E3B70190E04EC08A81813319F09C85B0
S11319B09F7E9C87B70190E00E94F80F111105C02B
S11319C094FC18C085E690E017C0B7018EE290E061
S11319D00E94F80F1E5F82E001E0080FF301E80F98
S11319E0F11D8081B70190E00E94F80F802F011350
S11319F0F3CFE6CF85E490E0B7010E94F80FD7FC5F
S1131A0006C0C114D10441F4EC85E4FF05C0D194AF
S1131A10C194D1088DE201C08BE2B70190E00E942D
S1131A20F80F80E32AE0C216D1042CF08F5FFAE0AD
S1131A30CF1AD108F7CFB70190E00E94F80FB70191
S1131A40C601C0960E94F80F54C1833631F0833723
S1131A5079F0833509F056C020C0560132E0A30E58
S1131A60B11CF6018081898301E010E0630112C09A
S1131A705601F2E0AF0EB11CF601C080D18096FE93
S1131A8003C0612F70E002C06FEF7FEFC6010E94B8
S1131A90D30F8C01F92DFF7714C0560122E0A20E5A
S1131AA0B11CF601C080D18096FE03C0612F70E0A6
S1131AB002C06FEF7FEFC6010E94BD0F8C01F92DAC
S1131AC0F0689F2EF3FD1AC0852D90E008171907C2
S1131AD0A8F4B70180E290E00E94F80F5A94F4CF82
S1131AE0F60197FC859197FE81916F01B70190E013
S1131AF00E94F80F51105A94015011090115110553
S1131B0079F7F7C0843611F0893661F5560197FEEE
S1131B1009C024E0A20EB11CF601608171818281AA
S1131B2093810AC0F2E0AF0EB11CF60160817181AD
S1131B30072E000C880B990BF92DFF769F2E97FF2B
S1131B4009C090958095709561957F4F8F4F9F4FF9
S1131B50F0689F2E2AE030E0A3010E945D10C82E99
S1131B60C6183FC0092D853721F40F7E2AE030E0E6
S1131B701DC0097F8F3691F018F4883559F0C3C021
S1131B80803719F0883711F0BEC0006104FF09C026
S1131B90046007C094FE08C0066006C028E030E078
S1131BA005C020E130E002C020E132E0560107FF29
S1131BB009C084E0A80EB11CF601608171818281A4
S1131BC0938108C0F2E0AF0EB11CF601608171810F
S1131BD080E090E0A3010E945D10C82EC6180F7724
S1131BE0902E96FE0BC0092D0E7FC11650F494FE64
S1131BF00AC092FC08C0092D0E7E05C0DC2C092DFC
S1131C0003C0DC2C01C0D12E04FF0DC0FE01EC0D7D
S1131C10F11D8081803311F4097E09C002FF06C0E2
S1131C20D394D39404C0802F867809F0D39403FD11
S1131C3011C000FF06C01C2DD51480F4150D1D190C
S1131C400DC0D51458F4B70180E290E00E94F80F5B
S1131C50D394F7CFD51410F45D1801C0512C04FFB0
S1131C6010C0B70180E390E00E94F80F02FF17C094
S1131C7001FD03C088E790E002C088E590E0B70169
S1131C800CC0802F867859F001FF02C08BE201C09E
S1131C9080E207FD8DE2B70190E00E94F80FC116C3
S1131CA038F4B70180E390E00E94F80F1150F7CFA9
S1131CB0CA94F301EC0DF11D8081B70190E00E94FC
S1131CC0F80FC110F5CF15C0F4E0F51560F584E008
S1131CD0581A93FE1FC0011127C02C8523FF2AC068
S1131CE000EF11E0392D3071932EF80184918111A8
S1131CF024C0552009F4E4CCB70180E290E00E94AE
S1131D00F80F5A94F6CFF7018681978126C08FEF9A
S1131D109FEF23C0B70180E290E00E94F80F5A942D
S1131D205110F8CFD8CF512CB701802F90E00E94EA
S1131D30F80FD3CF04EF11E0D5CF91108052B70143
S1131D4090E00E94F80F0F5F1F4FCFCF23E02515BF
S1131D5010F483E0BDCF512CC0CF6096CDBFDEBF61
S1131D60DF91CF911F910F91FF90EF90DF90CF9073
S1131D70BF90AF909F908F907F906F905F904F90A7
S1131D803F902F900895A1E21A2EAA1BBB1BFD01C0
S1131D900DC0AA1FBB1FEE1FFF1FA217B307E40746
S1131DA0F50720F0A21BB30BE40BF50B661F771F9E
S1131DB0881F991F1A9469F760957095809590957E
S1131DC09B01AC01BD01CF010895283008F027E044
S1131DD03327DA01990F311D87FD91600096610563
S1131DE0710539F432602E5F3D9330E32A95E1F7B3
S1131DF008959F3F30F080387105610509F03C5F1C
S1131E003C5F3D93913008F08068911DDF93CF9340
S1131E101F930F93FF92EF92192F987F9695E92FB6
S1131E2096959695E90FFF27EE5AFD4F992733278C
S1131E30EE24FF24A701E70105900894079428F4F1
S1131E40360FE71EF81E491F511D660F771F881FA6
S1131E50991F0694A1F70590079428F4E70EF81E3D
S1131E60491F561FC11D770F881F991F661F0694AF
S1131E70A1F70590079428F4F80E491F561FC71FB1
S1131E80D11D880F991F661F771F0694A1F705902F
S1131E90079420F4490F561FC71FD81F990F661FB8
S1131EA0771F881F0694A9F784911095177041F045
S1131EB0D695C79557954795F794E7941A95C1F722
S1131EC0E8EFF1E06894159015913591659195913D
S1131ED005907FE27395E118F10A430B560BC90B89
S1131EE0D009C0F7E10CF11E431F561FC91FD01DB6
S1131EF07EF4703311F48A95E6CFE894015030F003
S1131F00080F0AF40027021708F4202F2395022F44
S1131F107A3328F079E37D932A95E9F710C07D930D
S1131F202A9589F60694979567953795179517948A
S1131F30E118F10A430B560BC90BD00998F023950D
S1131F407E9173957A3308F070E37C932013B8F78D
S1131F507E9170617D9330F0839571E37D9370E39E
S1131F602A95E1F71124EF90FF900F911F91CF91E3
S1131F70DF91992787FD90950895FC0105906150A4
S1131F8070400110D8F7809590958E0F9F1F08958B
S1131F90FB01DC010D900020E9F7119701900D92EF
S1131FA00020E1F70895FC01615070400190011098
S1131FB0D8F7809590958E0F9F1F0895FB0151913E
S1131FC05523A9F0BF01DC014D9145174111E1F7FB
S1131FD059F4CD010190002049F04D914015411173
S1131FE0C9F3FB014111EFCF81E090E0019708951F
S1131FF00F931F93CF93DF93FB01238121FD03C034
S11320008FEF9FEF2CC022FF16C046815781248199
S113201035814217530744F4A081B1819D012F5F9C
S11320203F4F208331838C93268137812F5F3F4F2D
S11320302683378314C08B01EC01FB010084F185F6
S1132040E02D1995892BE1F6D80116968D919C9176
S11320501797019616968D939C931797CE01DF914F
S1132060CF911F910F9108950F931F93CF93DF93F7
S1132070CDB7DEB72E97CDBFDEBF0E891F8986E0B0
S11320808C8309831A838FEF9FE78D839E83AE0130
S1132090465E5F4F688D798DCE0101960E94230BB9
S11320A0EF81F885E00FF11F10822E96CDBFDEBFC1
S11320B0DF91CF911F910F910895FA01AA2728303B
S11320C051F1203181F1E8946F936E7F6E5F7F4F01
S11320D08F4F9F4FAF4FB1E03ED0B4E03CD0670F7D
S11320E0781F891F9A1FA11D680F791F8A1F911DD0
S11320F0A11D6A0F711D811D911DA11D20D009F420
S113210068943F912AE0269F11243019305D319361
S1132110DEF6CF010895462F4770405D4193B3E04A
S11321200FD0C9F7F6CF462F4F70405D4A3318F0F1
S1132130495D31FD4052419302D0A9F7EACFB4E0A2
S1132140A6959795879577956795BA95C9F700975A
S11321506105710508959B01AC010A2E06945795FB
S1132160479537952795BA95C9F7620F731F841F52
S10D2170951FA01D0895F894FFCFF9
S113217A0000000000000000000000000000000051
S113218A0000000000000000000000000000000041
S113219A0000000000000000000000000000000031
S11321AA0000000000000000000000000000000021
S11321BA0000000000000000000000000000000011
S11321CA0000000000000000000000000000000001
S11321DA00000000000000000000000000000000F1
S11321EA00000000000000000000000000000000E1
S11321FA00000000000000000000000000000000D1
S113220A00000000000000000000000000003FC0C1
S113221A000000000000000000000000000001E0CF
S113222A000000000000000000000000000000F0B0
S113223A0000000000000000000000000000007020
S113224A0000000000000000000000000000007808
S113225A0000000000000000000000000000003838
S113226A0000000000000000000000000000003828
S113227A0000000000000000000000000000003818
S113228A0000000000000000000000000000001828
S113229A0000000000000000000000000000001020
S11322AA0000000000000000000000000000001010
S11322BA0000000000000000000000000000001000
S11322CA0000000000000000000000000000000000
S11322DA7807E00FC0FFFF81FFF81FFE03F01F001D
S11322EA780FE01FC0FFFFC7FFF87FFF07F81F0042
S11322FA781F801FE0FFFFCFFFF8FFFF87FC1F0056
S113230A783F003FF0FFFFCFFFF9FFFFC7FC1F0034
S113231A78FE003FF0FFFFDFC009FC0FC7FE1F0075
S113232A79FC007FF801E01F8001F003C7FF1F005A
S113233A7FFC00FDFC01E01F0001F003C7BF9F0002
S113234A7FF801F8FC01E01F0001F003C79F9F001A
S113235A7FFC01F87E01E01F0001F003C78FDF0054
S113236A78FC03FFFE01E01F0001F003C787DF00CA
S113237A787E03FFFF01E01F8001F807C787FF008B
S113238A783F03FFFF01E00FFFF9FFFFC783FF0058
S113239A781FC3FFFF81E00FFFF8FFFF8781FF006B
S11323AA780FE7C01F81E007FFF8FFFF8780FF006F
S11323BA7807F7C00F81E003FFF83FFE0780FF00AC
S11323CA00000000000000000000000000000000FF
S11323DA3E80000202000001E0001000000000003C
S11323EA088000020200000300001000000600003A
S11323FA0880000000000002000010000002000033
S113240A08F9E11BF2F9E0F3C787D7CF71F2D0805C
S113241A088711130289308A008414416102918069
S113242A0887F193828D208A078417E741838900FC
S113243A0887F0B2F28D208A0C8417CF40F38B0000
S113244A088700A21289208A0884141140128E0077
S113245A0885B063B2D930DA0D87575B41B6C60036
S113246A0884E042E27100220601D18600E04C00B1
S113247A0000000000000000000000000000080046
S113248A000000000000000000000000000000003E
S113249A000000000000000000000000000000002E
S11324AA000000000000000000000000000000001E
S11324BA000000000000000000000000000000000E
S11324CA00000000000000000000000000000000FE
S11324DA00000000000000000000000000000000EE
S11324EA00000000000000000000000000000000DE
S11324FA00000000000000000000000000000000CE
S113250A000000000000000000000001CE2271104B
S113251A0000000000000000000000012D228110CC
S113252A000000000000000000000001CD36811008
S113253A0000000000000000000000012E1470E0FA
S113254A0000000000000000000000012D1C88109B
S113255A000000000000000000000001CC88881080
S113256A00000000000000000000000000007010DD
S113257A00000002000000001E0B00000000000022
S113258A0002000000006F0A000000002020202042
S113259A202020202020202020200041542B435793
S11325AA4A41503D225544454D2057694669222CDB
S11325BA22220041542B43495053454E443D25643D
S11325CA00504F5354202F6170692F76312E362FC5
S11325DA7661726961626C65732F002F76616C751E
S11325EA65732F3F746F6B656E3D00436F6E746540
S11325FA6E742D4C656E6774683A202564007B22DC
S113260A76616C7565223A2022253475227D004153
S113261A542B43495053544152543D22544350225B
S113262A2C227468696E67732E756269646F747399
S113263A2E636F6D222C38300035386332353237C9
S113264A313736323534323135306236363931360D
S113265A39006D653253434E426A734B44453468BC
S113266A74463576496A4636464F5375476B506DFC
S113267A00486F73743A207468696E67732E7562C2
S113268A69646F74732E636F6D00436F6E74656E45
S113269A742D547970653A206170706C6963617441
S11326AA696F6E2F6A736F6E00436865636B696E38
S11326BA6720666F7220455350004966206E6F206A
S11326CA4F4B20666F722033307300506C65617310
S11326DA6520526573657400415400455350204F78
S11326EA4B00434F4E2032205749464900417474E7
S11326FA656D7074696E672E2E2E0041542B4357F4
S113270A4A41503D224B4154434F4E5F475545532E
S113271A54222C22316E7669743464303230313664
S113272A6B617422004641494C0052452D41747430
S113273A656D70742E2E2E256400434F4E4E45430C
S113274A54454421203A44005345542049502057C3
S113275A4946490041542B43495041503D223130A6
S113276A2E302E302E3937222C2231302E302E3074
S113277A2E31222C223235352E3235352E3235354C
S113278A2E30220049502053455421203A44004314
S113279A4F4E203220554249444F54530041542B42
S11327AA43495053544152543D22544350222C22FB
S11327BA35302E32332E3132342E3638222C3830FC
S11327CA00434C4F53454400434F4E20434C4F5310
S11327DA45442100414C524541445900414C52451B
S11327EA41445920434F4E21004641494C45532008
S11327FA3220434F4E2100486F6C612055424944B0
S113280A4F545321203A4400444154412032205524
S113281A4249444F545300524459203420414354AA
S113282A494F4E2100504F5354202F6170692F761F
S113283A312E362F646576696365732F726F626F02
S113284A74315F6B6174636F6E2F3F746F6B656E67
S113285A3D6D653253434E426A734B444534687442
S113286A463576496A4636464F5375476B506D204E
S113287A485454502F312E3100436F6E6E65637481
S113288A696F6E3A20636C6F736500226D6F746FA3
S113289A725F3134223A20222534752200226D6F68
S11328AA746F725F3133223A202225347522002252
S11328BA6D6F746F725F3132223A20222534752289
S11328CA00226D6F746F725F3131223A20222534EF
S11328DA752200226D6F746F725F3130223A2022A2
S11328EA2534752200226D6F746F725F39223A2083
S11328FA222534752200226D6F746F725F38223A72
S113290A20222534752200226D6F746F725F37227C
S113291A3A20222534752200226D6F746F725F3655
S113292A223A20222534752200226D6F746F725F59
S113293A35223A20222534752200226D6F746F7273
S113294A5F34223A20222534752200226D6F746F77
S113295A725F33223A20222534752200226D6F7465
S113296A6F725F32223A20222534752200226D6F5B
S113297A746F725F31223A2022253475220053453E
S113298A4E44204641494C45443F004552524F5219
S113299A00474F54204552524F523F0044617461DC
S11329AA2053454E5421203A4400416674657220EE
S11329BA4950210053313A2534640053323A2534BC
S11329CA640053333A2534640053343A253464009A
S11329DA53353A2534640053363A25346400533760
S11329EA3A2534640053383A25346400466F756EC8
S10929FA64204F4B0000B5
S9030000FC
